{
  "contractName": "morter",
  "abi": [
    {
      "inputs": [
        {
          "internalType": "contract propNFT",
          "name": "_nftcontract",
          "type": "address"
        }
      ],
      "stateMutability": "nonpayable",
      "type": "constructor"
    },
    {
      "anonymous": false,
      "inputs": [
        {
          "indexed": true,
          "internalType": "address",
          "name": "owner",
          "type": "address"
        },
        {
          "indexed": true,
          "internalType": "uint256",
          "name": "nftId",
          "type": "uint256"
        },
        {
          "indexed": false,
          "internalType": "string",
          "name": "time",
          "type": "string"
        }
      ],
      "name": "dropCollected",
      "type": "event"
    },
    {
      "inputs": [
        {
          "internalType": "uint256",
          "name": "",
          "type": "uint256"
        }
      ],
      "name": "allproperties",
      "outputs": [
        {
          "internalType": "uint256",
          "name": "property_id",
          "type": "uint256"
        },
        {
          "internalType": "uint256",
          "name": "price",
          "type": "uint256"
        },
        {
          "internalType": "uint256",
          "name": "status",
          "type": "uint256"
        },
        {
          "internalType": "address",
          "name": "owner",
          "type": "address"
        },
        {
          "internalType": "address",
          "name": "mortgager",
          "type": "address"
        },
        {
          "internalType": "uint256",
          "name": "mortgageamt",
          "type": "uint256"
        },
        {
          "internalType": "uint256",
          "name": "downpayment",
          "type": "uint256"
        },
        {
          "internalType": "uint256",
          "name": "capital_to_be_raised",
          "type": "uint256"
        },
        {
          "internalType": "uint256",
          "name": "emi_to_be_paid",
          "type": "uint256"
        },
        {
          "internalType": "bool",
          "name": "firstEmiDone",
          "type": "bool"
        },
        {
          "internalType": "uint256",
          "name": "totalInterestMonths",
          "type": "uint256"
        },
        {
          "internalType": "uint256",
          "name": "interestMonthsLeft",
          "type": "uint256"
        },
        {
          "internalType": "uint256",
          "name": "nftTokenId",
          "type": "uint256"
        },
        {
          "internalType": "uint256",
          "name": "lastEMItimestamp",
          "type": "uint256"
        }
      ],
      "stateMutability": "view",
      "type": "function"
    },
    {
      "inputs": [
        {
          "internalType": "uint256",
          "name": "",
          "type": "uint256"
        }
      ],
      "name": "dropStatus",
      "outputs": [
        {
          "internalType": "bool",
          "name": "",
          "type": "bool"
        }
      ],
      "stateMutability": "view",
      "type": "function"
    },
    {
      "inputs": [
        {
          "internalType": "uint256",
          "name": "",
          "type": "uint256"
        }
      ],
      "name": "droppedProperties",
      "outputs": [
        {
          "internalType": "uint256",
          "name": "",
          "type": "uint256"
        }
      ],
      "stateMutability": "view",
      "type": "function"
    },
    {
      "inputs": [],
      "name": "propertycounter",
      "outputs": [
        {
          "internalType": "uint256",
          "name": "",
          "type": "uint256"
        }
      ],
      "stateMutability": "view",
      "type": "function"
    },
    {
      "inputs": [],
      "name": "tc",
      "outputs": [
        {
          "internalType": "address",
          "name": "",
          "type": "address"
        }
      ],
      "stateMutability": "view",
      "type": "function"
    },
    {
      "inputs": [
        {
          "internalType": "uint256",
          "name": "_price",
          "type": "uint256"
        },
        {
          "internalType": "uint256",
          "name": "tokenId",
          "type": "uint256"
        }
      ],
      "name": "listProperty",
      "outputs": [],
      "stateMutability": "nonpayable",
      "type": "function"
    },
    {
      "inputs": [
        {
          "internalType": "uint256",
          "name": "property_id",
          "type": "uint256"
        },
        {
          "internalType": "uint256",
          "name": "payToSeller",
          "type": "uint256"
        },
        {
          "internalType": "uint256",
          "name": "payToTC",
          "type": "uint256"
        }
      ],
      "name": "direct_buy_property",
      "outputs": [],
      "stateMutability": "payable",
      "type": "function"
    },
    {
      "inputs": [
        {
          "internalType": "uint256",
          "name": "property_id",
          "type": "uint256"
        },
        {
          "internalType": "uint256",
          "name": "mortgage_amt",
          "type": "uint256"
        },
        {
          "internalType": "uint256",
          "name": "_emi",
          "type": "uint256"
        },
        {
          "internalType": "uint256",
          "name": "interestMonths",
          "type": "uint256"
        }
      ],
      "name": "initiate_mortgage",
      "outputs": [],
      "stateMutability": "payable",
      "type": "function"
    },
    {
      "inputs": [
        {
          "internalType": "uint256",
          "name": "property_id",
          "type": "uint256"
        },
        {
          "internalType": "uint256",
          "name": "rf_amount",
          "type": "uint256"
        }
      ],
      "name": "riskfreeinvest",
      "outputs": [],
      "stateMutability": "payable",
      "type": "function"
    },
    {
      "inputs": [
        {
          "internalType": "uint256",
          "name": "property_id",
          "type": "uint256"
        }
      ],
      "name": "trade",
      "outputs": [],
      "stateMutability": "payable",
      "type": "function"
    },
    {
      "inputs": [
        {
          "internalType": "uint256",
          "name": "property_id",
          "type": "uint256"
        },
        {
          "internalType": "uint256",
          "name": "penaltyAmount",
          "type": "uint256"
        }
      ],
      "name": "payEmi",
      "outputs": [],
      "stateMutability": "payable",
      "type": "function"
    },
    {
      "inputs": [
        {
          "internalType": "uint256",
          "name": "property_id",
          "type": "uint256"
        }
      ],
      "name": "snatchNFT",
      "outputs": [],
      "stateMutability": "payable",
      "type": "function"
    },
    {
      "inputs": [
        {
          "internalType": "uint256",
          "name": "property_id",
          "type": "uint256"
        },
        {
          "internalType": "string",
          "name": "time",
          "type": "string"
        }
      ],
      "name": "getDropProperty",
      "outputs": [],
      "stateMutability": "nonpayable",
      "type": "function"
    },
    {
      "inputs": [],
      "name": "getAllDroppedProperties",
      "outputs": [
        {
          "internalType": "uint256[]",
          "name": "",
          "type": "uint256[]"
        }
      ],
      "stateMutability": "view",
      "type": "function"
    },
    {
      "inputs": [],
      "name": "getContractBalance",
      "outputs": [
        {
          "internalType": "uint256",
          "name": "",
          "type": "uint256"
        }
      ],
      "stateMutability": "view",
      "type": "function"
    },
    {
      "inputs": [
        {
          "internalType": "uint256",
          "name": "property_id",
          "type": "uint256"
        }
      ],
      "name": "getHouseDetails",
      "outputs": [
        {
          "components": [
            {
              "internalType": "uint256",
              "name": "property_id",
              "type": "uint256"
            },
            {
              "internalType": "uint256",
              "name": "price",
              "type": "uint256"
            },
            {
              "internalType": "uint256",
              "name": "status",
              "type": "uint256"
            },
            {
              "internalType": "address",
              "name": "owner",
              "type": "address"
            },
            {
              "internalType": "address",
              "name": "mortgager",
              "type": "address"
            },
            {
              "internalType": "uint256",
              "name": "mortgageamt",
              "type": "uint256"
            },
            {
              "internalType": "uint256",
              "name": "downpayment",
              "type": "uint256"
            },
            {
              "internalType": "uint256",
              "name": "capital_to_be_raised",
              "type": "uint256"
            },
            {
              "internalType": "uint256",
              "name": "emi_to_be_paid",
              "type": "uint256"
            },
            {
              "internalType": "address[]",
              "name": "risk_free_investors",
              "type": "address[]"
            },
            {
              "internalType": "uint256[]",
              "name": "riskFreeInvestorPayment",
              "type": "uint256[]"
            },
            {
              "internalType": "uint256[]",
              "name": "riskFreeInvestorInvestment",
              "type": "uint256[]"
            },
            {
              "internalType": "bool",
              "name": "firstEmiDone",
              "type": "bool"
            },
            {
              "internalType": "uint256",
              "name": "totalInterestMonths",
              "type": "uint256"
            },
            {
              "internalType": "uint256",
              "name": "interestMonthsLeft",
              "type": "uint256"
            },
            {
              "internalType": "uint256",
              "name": "nftTokenId",
              "type": "uint256"
            },
            {
              "internalType": "uint256",
              "name": "lastEMItimestamp",
              "type": "uint256"
            }
          ],
          "internalType": "struct morter.House_property",
          "name": "",
          "type": "tuple"
        }
      ],
      "stateMutability": "view",
      "type": "function"
    },
    {
      "inputs": [
        {
          "internalType": "uint256",
          "name": "property_id",
          "type": "uint256"
        }
      ],
      "name": "getAddresses",
      "outputs": [
        {
          "internalType": "address[]",
          "name": "",
          "type": "address[]"
        }
      ],
      "stateMutability": "view",
      "type": "function"
    },
    {
      "inputs": [
        {
          "internalType": "uint256",
          "name": "property_id",
          "type": "uint256"
        }
      ],
      "name": "getRiskFreeInvestorInvestment",
      "outputs": [
        {
          "internalType": "uint256[]",
          "name": "",
          "type": "uint256[]"
        }
      ],
      "stateMutability": "view",
      "type": "function"
    },
    {
      "inputs": [
        {
          "internalType": "uint256",
          "name": "property_id",
          "type": "uint256"
        }
      ],
      "name": "getRiskFreeInvestorPayment",
      "outputs": [
        {
          "internalType": "uint256[]",
          "name": "",
          "type": "uint256[]"
        }
      ],
      "stateMutability": "view",
      "type": "function"
    },
    {
      "inputs": [],
      "name": "depositEther",
      "outputs": [],
      "stateMutability": "payable",
      "type": "function"
    },
    {
      "inputs": [],
      "name": "withdrawEther",
      "outputs": [],
      "stateMutability": "payable",
      "type": "function"
    }
  ],
  "bytecode": "0x608060405260006002553480156200001657600080fd5b5060405162002a9138038062002a91833981016040819052620000399162000068565b600080546001600160a01b039092166001600160a01b0319928316179055600180549091163317905562000098565b6000602082840312156200007a578081fd5b81516001600160a01b038116811462000091578182fd5b9392505050565b6129e980620000a86000396000f3fe60806040526004361061012a5760003560e01c80639e23d617116100ab578063df1dd8261161006f578063df1dd826146102c7578063e8908346146102da578063ec4788cd14610307578063ee9b6a9614610334578063f6420e1514610349578063f8c89ed21461036b5761012a565b80639e23d6171461024e578063b84cb1851461026e578063bc7939fd14610281578063cbd6d7b1146102a1578063d540ca1b146102b45761012a565b806370ae0389116100f257806370ae0389146101eb5780637362377b1461020b57806386cac374146102135780638af095391461022657806398ea5fca146102465761012a565b80633c34106c1461012f57806344e59d80146101445780634eda529b1461018757806363baac55146101a75780636f9fb98a146101c9575b600080fd5b61014261013d3660046125c4565b610398565b005b34801561015057600080fd5b5061016461015f3660046124aa565b6107a2565b60405161017e9e9d9c9b9a999897969594939291906128cc565b60405180910390f35b34801561019357600080fd5b506101426101a2366004612578565b610822565b3480156101b357600080fd5b506101bc610a05565b60405161017e91906126ff565b3480156101d557600080fd5b506101de610a5d565b60405161017e91906128c3565b3480156101f757600080fd5b506101bc6102063660046124aa565b610a61565b610142610ac6565b610142610221366004612578565b610b19565b34801561023257600080fd5b506101426102413660046124c2565b610d29565b610142610f2a565b34801561025a57600080fd5b506101de6102693660046124aa565b610f43565b61014261027c366004612578565b610f64565b34801561028d57600080fd5b506101bc61029c3660046124aa565b611449565b6101426102af3660046124aa565b6114ac565b6101426102c2366004612599565b6117e4565b6101426102d53660046124aa565b611c0f565b3480156102e657600080fd5b506102fa6102f53660046124aa565b61201e565b60405161017e919061279c565b34801561031357600080fd5b506103276103223660046124aa565b6121ee565b60405161017e91906126b2565b34801561034057600080fd5b506101de61225c565b34801561035557600080fd5b5061035e612262565b60405161017e919061267a565b34801561037757600080fd5b5061038b6103863660046124aa565b612271565b60405161017e9190612719565b6000848152600360205260409020600201546064146103b657600080fd5b6000848152600360205260409020600101546103d157600080fd5b60008481526003602052604090206001015483106103ee57600080fd5b6000848152600360205260409020600401546001600160a01b03161561041357600080fd5b600084815260036020526040902060010154610430908490612955565b34146104575760405162461bcd60e51b815260040161044e90612777565b60405180910390fd5b600084815260036020818152604080842081516102208101835281548152600182015481850152600282015481840152938101546001600160a01b0390811660608601526004820154166080850152600581015460a0850152600681015460c0850152600781015460e085015260088101546101008501526009810180548351818602810186019094528084529193610120860193929083018282801561052757602002820191906000526020600020905b81546001600160a01b03168152600190910190602001808311610509575b50505050508152602001600a820180548060200260200160405190810160405280929190818152602001828054801561057f57602002820191906000526020600020905b81548152602001906001019080831161056b575b50505050508152602001600b82018054806020026020016040519081016040528092919081815260200182805480156105d757602002820191906000526020600020905b8154815260200190600101908083116105c3575b5050509183525050600c82015460ff161515602080830191909152600d830154604080840191909152600e8401546060840152600f84015460808085019190915260109094015460a093840152339385019390935290830187905260008881526003909152206001015490915061064f908590612955565b60c0820190815260c8604080840191825260a08401805160e0860190815261010086018881526101c087018890526101a0870188905260008b815260036020818152959091208851815585890151600182015595516002870155606088015190860180546001600160a01b039283166001600160a01b03199182161790915560808901516004880180549190931691161790559151600585015593516006840155925160078301559151600882015561012083015180518493610719926009850192910190612303565b50610140820151805161073691600a840191602090910190612368565b50610160820151805161075391600b840191602090910190612368565b50610180820151600c8201805460ff19169115159190911790556101a0820151600d8201556101c0820151600e8201556101e0820151600f820155610200909101516010909101555050505050565b60036020819052600091825260409091208054600182015460028301549383015460048401546005850154600686015460078701546008880154600c890154600d8a0154600e8b0154600f8c01546010909c01549a9c999b999a6001600160a01b03998a169a9990981698969795969495939460ff90931693919290918e565b61082a6123a3565b818152602081018390526064604082015233606082015260006080820181905260a0820181905260e082018190526101e082018390526101808201819052600280546001929061087b90849061293d565b9091555050826108d5576101f460408083019190915260048054600181019091557f8a35acfbc15ff81a39ae7d344fd709f28e8600b4aa8c65c6b64bfe7fe36bd19b018390556000838152600560205220805460ff191690555b805160009081526003602081815260409283902084518155818501516001820155928401516002840155606084015191830180546001600160a01b039384166001600160a01b03199182161790915560808501516004850180549190941691161790915560a0830151600583015560c0830151600683015560e083015160078301556101008301516008830155610120830151805184939261097e926009850192910190612303565b50610140820151805161099b91600a840191602090910190612368565b5061016082015180516109b891600b840191602090910190612368565b50610180820151600c8201805460ff19169115159190911790556101a0820151600d8201556101c0820151600e8201556101e0820151600f82015561020090910151601090910155505050565b60606004805480602002602001604051908101604052809291908181526020018280548015610a5357602002820191906000526020600020905b815481526020019060010190808311610a3f575b5050505050905090565b4790565b600081815260036020908152604091829020600b01805483518184028101840190945280845260609392830182828015610aba57602002820191906000526020600020905b815481526020019060010190808311610aa6575b50505050509050919050565b6001546001600160a01b03163314610add57600080fd5b6001546040516001600160a01b03909116904780156108fc02916000818181858888f19350505050158015610b16573d6000803e3d6000fd5b50565b80610b2357600080fd5b60008281526003602052604090206002015460c814610b4157600080fd5b600082815260036020526040902060070154811115610b5f57600080fd5b803414610b6b57600080fd5b60008281526003602052604090206007810154610b89908390612955565b60078201819055610b9d5761012c60028201555b600981018054600181810183556000838152602080822090930180546001600160a01b03191633179055600b850180549283018155815291822001849055610be6600285612286565b90506000610bf6826103e86122cf565b600a8501805460018082018355600092835260208084209092018490558983526003918290526040909220875481558288015492810192909255600280880154908301558087015490820180546001600160a01b039283166001600160a01b031991821617909155600480890154908401805491909316911617905560058087015490820155600680870154908201556007808701549082015560088087015490820155600980870180549394508793610cb3928401919061243b565b50600a8281018054610cc8928401919061243b565b50600b8281018054610cdd928401919061243b565b50600c82810154908201805460ff191660ff9092161515919091179055600d8083015490820155600e8083015490820155600f8083015490820155601091820154910155505050505050565b6000828152600360205260409020600181015415610d4657600080fd5b6000546003820154600f8301546040516341172efd60e01b81526001600160a01b03938416936341172efd93610d849391169133919060040161268e565b600060405180830381600087803b158015610d9e57600080fd5b505af1158015610db2573d6000803e3d6000fd5b5050506000848152600560208181526040808420805460ff19166001908117909155600380880180546001600160a01b0319908116331782556002808b0189815596849052949097208954815589840154938101939093559354928201929092559154908201805485166001600160a01b039283161790556004808701549083018054909516911617909255838101549082015560068084015490820155600780840154908201556008808401549082015560098084018054859450610e7b928401919061243b565b50600a8281018054610e90928401919061243b565b50600b8281018054610ea5928401919061243b565b50600c82810154908201805460ff191660ff9092161515919091179055600d8083015490820155600e8083015490820155600f8083015490820155601091820154910155604051839033907fd800cb4f1752b7405f460dc7d59a8edadec59ec7966eaabc9c0a5d4f980138c890610f1d908690612724565b60405180910390a3505050565b6001546001600160a01b03163314610f4157600080fd5b565b60048181548110610f5357600080fd5b600091825260209091200154905081565b6000828152600360205260409020600281015461019014610f8457600080fd5b600081600e015411610f9557600080fd5b60048101546001600160a01b03163314610fae57600080fd5b81610fc85780600801543414610fc357600080fd5b610fd4565b813414610fd457600080fd5b600c81015460ff16610ff057600c8101805460ff191660011790555b6009810180546000805b828110156110e75783818154811061102257634e487b7160e01b600052603260045260246000fd5b600091825260209091200154600a860180546001600160a01b03909216916108fc91908490811061106357634e487b7160e01b600052603260045260246000fd5b90600052602060002001549081150290604051600060405180830381858888f19350505050158015611099573d6000803e3d6000fd5b5084600a0181815481106110bd57634e487b7160e01b600052603260045260246000fd5b9060005260206000200154826110d3919061293d565b9150806110df8161296c565b915050610ffa565b5060008561111c578185600801546110ff9190612955565b9050600185600e01546111129190612955565b600e86015561113f565b6111268287612955565b9050600285600e01546111399190612955565b600e8601555b6001546040516001600160a01b039091169082156108fc029083906000818181858888f19350505050158015611179573d6000803e3d6000fd5b50426010860155600e85015461133157600054600154600480880154600f89015460405163251e2e5f60e01b81526001600160a01b039586169563251e2e5f956111cc959082169490911692910161268e565b600060405180830381600087803b1580156111e657600080fd5b505af11580156111fa573d6000803e3d6000fd5b5050505060098501805460005b818110156112b95782818154811061122f57634e487b7160e01b600052603260045260246000fd5b600091825260209091200154600b890180546001600160a01b03909216916108fc91908490811061127057634e487b7160e01b600052603260045260246000fd5b90600052602060002001549081150290604051600060405180830381858888f193505050501580156112a6573d6000803e3d6000fd5b50806112b18161296c565b915050611207565b50600060018801819055600288018190556004880180546001600160a01b03191690556005880181905560068801819055600788018190556112ff90600989019061247b565b61130d600a8801600061247b565b61131b600b8801600061247b565b5050600c8501805460ff19169055600060108601555b60008781526003602081905260409091208654815560018088015490820155600280880154908201558682015491810180546001600160a01b039384166001600160a01b03199182161790915560048089015490830180549190941691161790915560058087015490820155600680870154908201556007808701549082015560088087015490820155600980870180548893926113d2929084019161243b565b50600a82810180546113e7928401919061243b565b50600b82810180546113fc928401919061243b565b50600c82810154908201805460ff191660ff9092161515919091179055600d8083015490820155600e8083015490820155600f808301549082015560109182015491015550505050505050565b600081815260036020908152604091829020600a01805483518184028101840190945280845260609392830182828015610aba5760200282019190600052602060002090815481526020019060010190808311610aa65750505050509050919050565b60008181526003602052604090206001546001600160a01b031633146114d157600080fd5b806001015434146114e157600080fd5b600081600e015482600d01546114f79190612955565b90506000611509828460080154612286565b9050600061151f84600d01548560080154612286565b9050600061152d8383612955565b905060008186600101546115419190612955565b60048701546040519192506001600160a01b03169082156108fc029083906000818181858888f1935050505015801561157e573d6000803e3d6000fd5b5060098601805460005b8181101561163a578281815481106115b057634e487b7160e01b600052603260045260246000fd5b600091825260209091200154600b8a0180546001600160a01b03909216916108fc9190849081106115f157634e487b7160e01b600052603260045260246000fd5b90600052602060002001549081150290604051600060405180830381858888f19350505050158015611627573d6000803e3d6000fd5b50806116328161296c565b915050611588565b506000600189810182905560028a018290555460038a0180546001600160a01b039092166001600160a01b031992831617905560048a018054909116905560058901819055600689018190556007890181905561169b9060098a019061247b565b6116a9600a8901600061247b565b6116b7600b8901600061247b565b600c8801805460ff19169055600060108901819055898152600360208190526040909120895481556001808b0154908201556002808b015490820155818a015491810180546001600160a01b039384166001600160a01b0319918216179091556004808c01549083018054919094169116179091556005808a0154908201556006808a0154908201556007808a0154908201556008808a0154908201556009808a0180548b939261176b929084019161243b565b50600a8281018054611780928401919061243b565b50600b8281018054611795928401919061243b565b50600c82810154908201805460ff191660ff9092161515919091179055600d8083015490820155600e8083015490820155600f8083015490820155601091820154910155505050505050505050565b60008381526003602052604090206002015460641461180257600080fd5b60008381526003602052604090206001015461181d57600080fd5b600083815260036020818152604080842081516102208101835281548152600182015481850152600282015481840152938101546001600160a01b0390811660608601526004820154166080850152600581015460a0850152600681015460c0850152600781015460e08501526008810154610100850152600981018054835181860281018601909452808452919361012086019392908301828280156118ed57602002820191906000526020600020905b81546001600160a01b031681526001909101906020018083116118cf575b50505050508152602001600a820180548060200260200160405190810160405280929190818152602001828054801561194557602002820191906000526020600020905b815481526020019060010190808311611931575b50505050508152602001600b820180548060200260200160405190810160405280929190818152602001828054801561199d57602002820191906000526020600020905b815481526020019060010190808311611989575b50505050508152602001600c820160009054906101000a900460ff16151515158152602001600d8201548152602001600e8201548152602001600f8201548152602001601082015481525050905080606001516001600160a01b03166108fc849081150290604051600060405180830381858888f19350505050158015611a28573d6000803e3d6000fd5b506001546040516001600160a01b039091169083156108fc029084906000818181858888f19350505050158015611a63573d6000803e3d6000fd5b5060005460608201516101e08301516040516341172efd60e01b81526001600160a01b03909316926341172efd92611aa292909133919060040161268e565b600060405180830381600087803b158015611abc57600080fd5b505af1158015611ad0573d6000803e3d6000fd5b505033606084019081526000604080860182815289835260036020818152929093208751815582880151600182015590516002820155925191830180546001600160a01b039384166001600160a01b03199182161790915560808701516004850180549190941691161790915560a0850151600583015560c0850151600683015560e0850151600783015561010085015160088301556101208501518051869550929350611b879260098501929190910190612303565b506101408201518051611ba491600a840191602090910190612368565b506101608201518051611bc191600b840191602090910190612368565b50610180820151600c8201805460ff19169115159190911790556101a0820151600d8201556101c0820151600e8201556101e0820151600f8201556102009091015160109091015550505050565b6001546001600160a01b03163314611c2657600080fd5b60008181526003602052604090206002015461012c14611c4557600080fd5b600081815260036020818152604080842081516102208101835281548152600182015481850152600282015481840152938101546001600160a01b0390811660608601526004820154166080850152600581015460a0850152600681015460c0850152600781015460e0850152600881015461010085015260098101805483518186028101860190945280845291936101208601939290830182828015611d1557602002820191906000526020600020905b81546001600160a01b03168152600190910190602001808311611cf7575b50505050508152602001600a8201805480602002602001604051908101604052809291908181526020018280548015611d6d57602002820191906000526020600020905b815481526020019060010190808311611d59575b50505050508152602001600b8201805480602002602001604051908101604052809291908181526020018280548015611dc557602002820191906000526020600020905b815481526020019060010190808311611db1575b5050509183525050600c82015460ff161515602080830191909152600d8301546040830152600e8301546060830152600f830154608083015260109092015460a09091015260c082015190820151919250611e1f91612955565b3414611e2a57600080fd5b80606001516001600160a01b03166108fc82602001519081150290604051600060405180830381858888f19350505050158015611e6b573d6000803e3d6000fd5b5060005460608201516001546101e0840151604051630a233ae560e31b81526001600160a01b0394851694635119d72894611ead94909391169160040161268e565b600060405180830381600087803b158015611ec757600080fd5b505af1158015611edb573d6000803e3d6000fd5b505050506080810180516001600160a01b03908116606084019081526101906040808601918252600087815260036020818152929091208751815582880151600182015592516002840155925192820180549385166001600160a01b031994851617905593516004820180549190941692169190911790915560a0830151600582015560c0830151600682015560e08301516007820155610100830151600882015561012083015180518493611f98926009850192910190612303565b506101408201518051611fb591600a840191602090910190612368565b506101608201518051611fd291600b840191602090910190612368565b50610180820151600c8201805460ff19169115159190911790556101a0820151600d8201556101c0820151600e8201556101e0820151600f820155610200909101516010909101555050565b6120266123a3565b60008281526003602081815260409283902083516102208101855281548152600182015481840152600282015481860152928101546001600160a01b0390811660608501526004820154166080840152600581015460a0840152600681015460c0840152600781015460e08401526008810154610100840152600981018054855181850281018501909652808652939491936101208601938301828280156120f757602002820191906000526020600020905b81546001600160a01b031681526001909101906020018083116120d9575b50505050508152602001600a820180548060200260200160405190810160405280929190818152602001828054801561214f57602002820191906000526020600020905b81548152602001906001019080831161213b575b50505050508152602001600b82018054806020026020016040519081016040528092919081815260200182805480156121a757602002820191906000526020600020905b815481526020019060010190808311612193575b5050509183525050600c82015460ff1615156020820152600d8201546040820152600e8201546060820152600f820154608082015260109091015460a09091015292915050565b600081815260036020908152604091829020600901805483518184028101840190945280845260609392830182828015610aba57602002820191906000526020600020905b81546001600160a01b031681526001909101906020018083116122335750505050509050919050565b60025481565b6001546001600160a01b031681565b60056020526000908152604090205460ff1681565b600082612295575060006122c9565b828202828482816122b657634e487b7160e01b600052601260045260246000fd5b04146122c65760009150506122c9565b90505b92915050565b6000816122de575060006122c9565b8183816122fb57634e487b7160e01b600052601260045260246000fd5b049392505050565b828054828255906000526020600020908101928215612358579160200282015b8281111561235857825182546001600160a01b0319166001600160a01b03909116178255602090920191600190910190612323565b50612364929150612495565b5090565b828054828255906000526020600020908101928215612358579160200282015b82811115612358578251825591602001919060010190612388565b60405180610220016040528060008152602001600081526020016000815260200160006001600160a01b0316815260200160006001600160a01b0316815260200160008152602001600081526020016000815260200160008152602001606081526020016060815260200160608152602001600015158152602001600081526020016000815260200160008152602001600081525090565b8280548282559060005260206000209081019282156123585760005260206000209182015b82811115612358578254825591600101919060010190612460565b5080546000825590600052602060002090810190610b1691905b5b808211156123645760008155600101612496565b6000602082840312156124bb578081fd5b5035919050565b600080604083850312156124d4578081fd5b82359150602083013567ffffffffffffffff808211156124f2578283fd5b818501915085601f830112612505578283fd5b8135818111156125175761251761299d565b604051601f8201601f19908116603f0116810190838211818310171561253f5761253f61299d565b81604052828152886020848701011115612557578586fd5b82602086016020830137856020848301015280955050505050509250929050565b6000806040838503121561258a578182fd5b50508035926020909101359150565b6000806000606084860312156125ad578081fd5b505081359360208301359350604090920135919050565b600080600080608085870312156125d9578081fd5b5050823594602084013594506040840135936060013592509050565b6001600160a01b03169052565b6000815180845260208085019450808401835b8381101561263a5781516001600160a01b031687529582019590820190600101612615565b509495945050505050565b6000815180845260208085019450808401835b8381101561263a57815187529582019590820190600101612658565b15159052565b6001600160a01b0391909116815260200190565b6001600160a01b039384168152919092166020820152604081019190915260600190565b6020808252825182820181905260009190848201906040850190845b818110156126f35783516001600160a01b0316835292840192918401916001016126ce565b50909695505050505050565b6000602082526127126020830184612645565b9392505050565b901515815260200190565b6000602080835283518082850152825b8181101561275057858101830151858201604001528201612734565b818111156127615783604083870101525b50601f01601f1916929092016040019392505050565b6020808252600b908201526a191bdddb9c185e5b595b9d60aa1b604082015260600190565b60006020825282516020830152602083015160408301526040830151606083015260608301516127cf60808401826125f5565b5060808301516127e260a08401826125f5565b5060a083015160c083015260c083015160e083015260e08301516101008181850152808501519150506101208181850152808501519150506102206101408181860152612833610240860184612602565b9250808601519050601f196101608187860301818801526128548584612645565b9450808801519250506101808187860301818801526128738584612645565b945080880151925050506101a061288c81870183612674565b8601516101c0868101919091528601516101e080870191909152860151610200808701919091529095015193019290925250919050565b90815260200190565b9d8e5260208e019c909c5260408d019a909a526001600160a01b0398891660608d01529690971660808b015260a08a019490945260c089019290925260e088015261010087015215156101208601526101408501919091526101608401526101808301526101a08201526101c00190565b6000821982111561295057612950612987565b500190565b60008282101561296757612967612987565b500390565b600060001982141561298057612980612987565b5060010190565b634e487b7160e01b600052601160045260246000fd5b634e487b7160e01b600052604160045260246000fdfea2646970667358221220b38323e95d1cea40d73d9c1cd5205fe3e9dc6424ce39a2bc721df3229366212f64736f6c63430008010033",
  "immutableReferences": {},
  "source": "// SPDX-License-Identifier: MIT\npragma solidity ^0.8.1;\npragma experimental ABIEncoderV2;\n\nimport \"./propNFT.sol\";\n\ncontract morter {\n    propNFT nftContract;\n    address public tc;\n\n    constructor(propNFT _nftcontract) {\n        nftContract = _nftcontract;\n        tc = msg.sender;\n    }\n\n    struct House_property {\n        uint256 property_id;\n        uint256 price;\n        uint256 status;\n        address owner;\n        address mortgager;\n        uint256 mortgageamt;\n        uint256 downpayment;\n        uint256 capital_to_be_raised;\n        uint256 emi_to_be_paid;\n        address[] risk_free_investors;\n        uint256[] riskFreeInvestorPayment;\n        uint256[] riskFreeInvestorInvestment;\n        bool firstEmiDone;\n        uint256 totalInterestMonths;\n        uint256 interestMonthsLeft;\n        uint256 nftTokenId;\n        uint256 lastEMItimestamp;\n    }\n\n    uint256 public propertycounter = 0;\n\n    mapping(uint256 => House_property) public allproperties;\n\n    uint256[] public droppedProperties;\n\n    mapping(uint256 => bool) public dropStatus;\n\n    event dropCollected(address indexed owner, uint indexed nftId,string time);\n\n    function listProperty(uint256 _price, uint256 tokenId) public {\n        // will be called by property lister\n        House_property memory prop;\n        prop.property_id = tokenId;\n        prop.price = _price;\n        prop.status = 100;\n        prop.owner = msg.sender;\n        prop.mortgager = address(0);\n        prop.mortgageamt = 0;\n        prop.capital_to_be_raised = 0;\n        prop.nftTokenId = tokenId;\n        prop.firstEmiDone = false;\n        propertycounter += 1;\n        if (_price == 0) {\n            prop.status = 500;\n            droppedProperties.push(tokenId);\n            dropStatus[tokenId] = false;\n        }\n        allproperties[prop.property_id] = prop;\n        //nftContract.approveContract(address(this),tokenId);\n    }\n\n    //status\n    //0 not listed\n    //100) newly listed\n    //200) mortgage initiated\n    //300) risk free investors invested\n    //400) final trade done\n    //500) drop property\n\n    function direct_buy_property(\n        uint256 property_id,\n        uint256 payToSeller,\n        uint256 payToTC\n    ) public payable {\n        //5% commission to TC for direct buying\n        //will be called by buyer\n        require(allproperties[property_id].status == 100);\n        require(allproperties[property_id].price != 0);\n        House_property memory prop = allproperties[property_id];\n        payable(prop.owner).transfer(payToSeller);\n        payable(tc).transfer(payToTC);\n        nftContract.transferFromOwnerToMortgager(\n            prop.owner,\n            msg.sender,\n            prop.nftTokenId\n        );\n        prop.owner = msg.sender;\n        prop.status = 0;\n        allproperties[property_id] = prop;\n    }\n\n    function initiate_mortgage(\n        uint256 property_id,\n        uint256 mortgage_amt,\n        uint256 _emi,\n        uint256 interestMonths\n    ) public payable {\n        //will be called by person who needs house on loan\n        require(allproperties[property_id].status == 100);\n        require(allproperties[property_id].price != 0);\n        require(allproperties[property_id].price > mortgage_amt);\n        require(allproperties[property_id].mortgager == address(0));\n        require(\n            msg.value == allproperties[property_id].price - mortgage_amt,\n            \"downpayment\"\n        );\n        House_property memory prop = allproperties[property_id];\n        prop.mortgager = msg.sender;\n        prop.mortgageamt = mortgage_amt;\n        prop.downpayment = allproperties[property_id].price - mortgage_amt;\n        prop.status = 200;\n        prop.capital_to_be_raised = prop.mortgageamt;\n        prop.emi_to_be_paid = _emi;\n        prop.interestMonthsLeft = interestMonths;\n        prop.totalInterestMonths = interestMonths;\n        allproperties[property_id] = prop;\n    }\n\n    function riskfreeinvest(uint256 property_id, uint256 rf_amount)\n        public\n        payable\n    {\n        //will be called by risk free investors everytime they want to invest\n        require(rf_amount != 0);\n        require(allproperties[property_id].status == 200);\n        require(allproperties[property_id].capital_to_be_raised >= rf_amount);\n        require(msg.value == rf_amount);\n        House_property storage prop = allproperties[property_id];\n        prop.capital_to_be_raised = prop.capital_to_be_raised - rf_amount;\n        if (prop.capital_to_be_raised == 0) {\n            prop.status = 300;\n        }\n        address[] storage allriskfreeinvestors = prop.risk_free_investors;\n        allriskfreeinvestors.push(msg.sender);\n        prop.riskFreeInvestorInvestment.push(rf_amount);\n        uint256 returnForRFI = tryMul(2, rf_amount); //0.2% fixed returns\n        uint256 payToRiskFreeInvestor = tryDiv(returnForRFI, 1000);\n        prop.riskFreeInvestorPayment.push(payToRiskFreeInvestor);\n        allproperties[property_id] = prop;\n    }\n\n    function trade(uint256 property_id) public payable {\n        //will be called by trading company to finalise trade\n        require(msg.sender == tc);\n        require(allproperties[property_id].status == 300);\n        House_property memory prop = allproperties[property_id];\n        require(msg.value == prop.price - prop.downpayment);\n        //prop owner gets his/her price and exits\n        payable(prop.owner).transfer(prop.price);\n        //here prop.owner is original seller and contract has approval for transfer\n        nftContract.transferFromMortgagerToTC(prop.owner, tc, prop.nftTokenId);\n        prop.owner = prop.mortgager;\n        prop.status = 400;\n        allproperties[property_id] = prop;\n    }\n\n    function payEmi(uint256 property_id, uint256 penaltyAmount) public payable {\n        //will be called by mortgager to pay EMI\n        House_property storage prop = allproperties[property_id];\n        require(prop.status == 400);\n        require(prop.interestMonthsLeft > 0);\n        require(msg.sender == prop.mortgager);\n        // here penaltyAmount is the total amount after adding 2 emis and penalty\n        if (penaltyAmount == 0) require(msg.value == prop.emi_to_be_paid);\n        else require(msg.value == penaltyAmount);\n\n        //first emi flag\n        if (prop.firstEmiDone == false) {\n            prop.firstEmiDone = true;\n        }\n\n        // transfer returns to risk free investors\n        address[] storage allriskfreeinvestors = prop.risk_free_investors;\n        uint256 count_of_rf_investors = allriskfreeinvestors.length;\n        uint256 totalRiskFreePayment = 0;\n        for (uint256 i = 0; i < count_of_rf_investors; i++) {\n            payable(allriskfreeinvestors[i]).transfer(\n                prop.riskFreeInvestorPayment[i]\n            );\n            totalRiskFreePayment += prop.riskFreeInvestorPayment[i];\n        }\n\n        //pay rest of amount to trading company\n        uint256 payToTC = 0;\n        if (penaltyAmount == 0) {\n            payToTC = prop.emi_to_be_paid - totalRiskFreePayment;\n            prop.interestMonthsLeft = prop.interestMonthsLeft - 1;\n        } else {\n            payToTC = penaltyAmount - totalRiskFreePayment;\n            prop.interestMonthsLeft = prop.interestMonthsLeft - 2;\n        }\n\n        payable(tc).transfer(payToTC);\n\n        //store last emi timestamp\n        prop.lastEMItimestamp = block.timestamp;\n\n        // If last emi successfully paid then,\n        if (prop.interestMonthsLeft == 0) {\n            //nft transferred to mortgager\n            nftContract.transferFromTCToMortgager(\n                tc,\n                prop.mortgager,\n                prop.nftTokenId\n            );\n\n            // transfer investment to risk free investors\n            address[] storage allriskfreeinvestors1 = prop.risk_free_investors;\n            uint256 count_of_rf_investors1 = allriskfreeinvestors1.length;\n            for (uint256 i = 0; i < count_of_rf_investors1; i++) {\n                payable(allriskfreeinvestors1[i]).transfer(\n                    prop.riskFreeInvestorInvestment[i]\n                );\n            }\n\n            // reset attributes of property so that it can be sold again\n            prop.price = 0;\n            prop.status = 0;\n            prop.mortgager = address(0);\n            prop.mortgageamt = 0;\n            prop.downpayment = 0;\n            prop.capital_to_be_raised = 0;\n            delete prop.risk_free_investors;\n            delete prop.riskFreeInvestorPayment;\n            delete prop.riskFreeInvestorInvestment;\n            prop.firstEmiDone = false;\n            prop.lastEMItimestamp = 0;\n        }\n\n        allproperties[property_id] = prop;\n    }\n\n    function snatchNFT(uint256 property_id) public payable {\n        House_property storage prop = allproperties[property_id];\n        require(msg.sender == tc);\n        require(msg.value == prop.price);\n        uint256 no_of_months_emi_paid = prop.totalInterestMonths -\n            prop.interestMonthsLeft;\n        uint256 totalEMIPaid = tryMul(\n            no_of_months_emi_paid,\n            prop.emi_to_be_paid\n        );\n        uint256 totalEMItoBePaid = tryMul(\n            prop.totalInterestMonths,\n            prop.emi_to_be_paid\n        );\n        // If mortgager defaults then, calculate his liabilities\n        uint256 actualLiability = totalEMItoBePaid - totalEMIPaid;\n        uint256 buyerExitAmount = prop.price - actualLiability;\n\n        // trading company snatches the property and sends remaining amount to mortgager and mortgager exits\n        payable(prop.mortgager).transfer(buyerExitAmount);\n\n        // transfer investment to risk free investors\n        address[] storage allriskfreeinvestors = prop.risk_free_investors;\n        uint256 count_of_rf_investors = allriskfreeinvestors.length;\n        for (uint256 i = 0; i < count_of_rf_investors; i++) {\n            payable(allriskfreeinvestors[i]).transfer(\n                prop.riskFreeInvestorInvestment[i]\n            );\n        }\n\n        // reset attributes of property so that it can be sold again\n        prop.price = 0;\n        prop.status = 0;\n        prop.owner = tc;\n        prop.mortgager = address(0);\n        prop.mortgageamt = 0;\n        prop.downpayment = 0;\n        prop.capital_to_be_raised = 0;\n        delete prop.risk_free_investors;\n        delete prop.riskFreeInvestorPayment;\n        delete prop.riskFreeInvestorInvestment;\n        prop.firstEmiDone = false;\n        prop.lastEMItimestamp = 0;\n\n        allproperties[property_id] = prop;\n    }\n\n    function getDropProperty(uint256 property_id,string memory time) public {\n        House_property storage prop = allproperties[property_id];\n        require(prop.price == 0);\n        nftContract.transferFromOwnerToMortgager(\n            prop.owner,\n            msg.sender,\n            prop.nftTokenId\n        );\n        dropStatus[property_id] = true;\n        prop.owner = msg.sender;\n        prop.status = 0;\n        allproperties[property_id] = prop;\n        emit dropCollected(msg.sender,property_id,time);\n    }\n\n    function getAllDroppedProperties() public view returns (uint256[] memory) {\n        return droppedProperties;\n    }\n\n    function getContractBalance() public view returns (uint256) {\n        return address(this).balance;\n    }\n\n    function getHouseDetails(uint256 property_id)\n        public\n        view\n        returns (House_property memory)\n    {\n        return allproperties[property_id];\n    }\n\n    function getAddresses(uint256 property_id)\n        public\n        view\n        returns (address[] memory)\n    {\n        return allproperties[property_id].risk_free_investors;\n    }\n\n    function getRiskFreeInvestorInvestment(uint256 property_id)\n        public\n        view\n        returns (uint256[] memory)\n    {\n        return allproperties[property_id].riskFreeInvestorInvestment;\n    }\n\n    function getRiskFreeInvestorPayment(uint256 property_id)\n        public\n        view\n        returns (uint256[] memory)\n    {\n        return allproperties[property_id].riskFreeInvestorPayment;\n    }\n\n    function tryMul(uint256 a, uint256 b) internal pure returns (uint256) {\n        unchecked {\n            if (a == 0) return (0);\n            uint256 c = a * b;\n            if (c / a != b) return (0);\n            return (c);\n        }\n    }\n\n    function tryDiv(uint256 a, uint256 b) internal pure returns (uint256) {\n        unchecked {\n            if (b == 0) return (0);\n            return (a / b);\n        }\n    }\n\n    function depositEther() public payable {\n        require(msg.sender == tc);\n    }\n\n    function withdrawEther() public payable {\n        require(msg.sender == tc);\n        payable(tc).transfer(address(this).balance);\n    }\n}\n",
  "sourcePath": "D:\\hackerearth\\HackerEarth_Proj22\\client\\contracts\\morter.sol",
  "compiler": {
    "name": "solc",
    "version": "0.8.1+commit.df193b15.Emscripten.clang"
  },
  "schemaVersion": "3.4.11",
  "updatedAt": "2023-01-06T19:52:25.540Z",
  "devdoc": {
    "kind": "dev",
    "methods": {},
    "version": 1
  },
  "userdoc": {
    "kind": "user",
    "methods": {},
    "version": 1
  }
}