{
  "contractName": "morter",
  "abi": [
    {
      "inputs": [
        {
          "internalType": "contract propNFT",
          "name": "_nftcontract",
          "type": "address"
        }
      ],
      "stateMutability": "nonpayable",
      "type": "constructor"
    },
    {
      "inputs": [
        {
          "internalType": "uint256",
          "name": "",
          "type": "uint256"
        }
      ],
      "name": "allproperties",
      "outputs": [
        {
          "internalType": "uint256",
          "name": "property_id",
          "type": "uint256"
        },
        {
          "internalType": "uint256",
          "name": "price",
          "type": "uint256"
        },
        {
          "internalType": "uint256",
          "name": "status",
          "type": "uint256"
        },
        {
          "internalType": "address",
          "name": "owner",
          "type": "address"
        },
        {
          "internalType": "address",
          "name": "mortgager",
          "type": "address"
        },
        {
          "internalType": "uint256",
          "name": "mortgageamt",
          "type": "uint256"
        },
        {
          "internalType": "uint256",
          "name": "downpayment",
          "type": "uint256"
        },
        {
          "internalType": "uint256",
          "name": "capital_to_be_raised",
          "type": "uint256"
        },
        {
          "internalType": "uint256",
          "name": "emi_to_be_paid",
          "type": "uint256"
        },
        {
          "internalType": "bool",
          "name": "firstEmiDone",
          "type": "bool"
        },
        {
          "internalType": "uint256",
          "name": "totalInterestMonths",
          "type": "uint256"
        },
        {
          "internalType": "uint256",
          "name": "interestMonthsLeft",
          "type": "uint256"
        },
        {
          "internalType": "uint256",
          "name": "nftTokenId",
          "type": "uint256"
        },
        {
          "internalType": "uint256",
          "name": "lastEMItimestamp",
          "type": "uint256"
        }
      ],
      "stateMutability": "view",
      "type": "function"
    },
    {
      "inputs": [],
      "name": "propertycounter",
      "outputs": [
        {
          "internalType": "uint256",
          "name": "",
          "type": "uint256"
        }
      ],
      "stateMutability": "view",
      "type": "function"
    },
    {
      "inputs": [],
      "name": "tc",
      "outputs": [
        {
          "internalType": "address",
          "name": "",
          "type": "address"
        }
      ],
      "stateMutability": "view",
      "type": "function"
    },
    {
      "inputs": [
        {
          "internalType": "uint256",
          "name": "_price",
          "type": "uint256"
        },
        {
          "internalType": "uint256",
          "name": "tokenId",
          "type": "uint256"
        }
      ],
      "name": "listProperty",
      "outputs": [],
      "stateMutability": "nonpayable",
      "type": "function"
    },
    {
      "inputs": [
        {
          "internalType": "uint256",
          "name": "property_id",
          "type": "uint256"
        },
        {
          "internalType": "uint256",
          "name": "payToSeller",
          "type": "uint256"
        },
        {
          "internalType": "uint256",
          "name": "payToTC",
          "type": "uint256"
        }
      ],
      "name": "direct_buy_property",
      "outputs": [],
      "stateMutability": "payable",
      "type": "function"
    },
    {
      "inputs": [
        {
          "internalType": "uint256",
          "name": "property_id",
          "type": "uint256"
        },
        {
          "internalType": "uint256",
          "name": "mortgage_amt",
          "type": "uint256"
        },
        {
          "internalType": "uint256",
          "name": "_emi",
          "type": "uint256"
        },
        {
          "internalType": "uint256",
          "name": "interestMonths",
          "type": "uint256"
        }
      ],
      "name": "initiate_mortgage",
      "outputs": [],
      "stateMutability": "payable",
      "type": "function"
    },
    {
      "inputs": [
        {
          "internalType": "uint256",
          "name": "property_id",
          "type": "uint256"
        },
        {
          "internalType": "uint256",
          "name": "rf_amount",
          "type": "uint256"
        }
      ],
      "name": "riskfreeinvest",
      "outputs": [],
      "stateMutability": "payable",
      "type": "function"
    },
    {
      "inputs": [
        {
          "internalType": "uint256",
          "name": "property_id",
          "type": "uint256"
        }
      ],
      "name": "trade",
      "outputs": [],
      "stateMutability": "payable",
      "type": "function"
    },
    {
      "inputs": [
        {
          "internalType": "uint256",
          "name": "property_id",
          "type": "uint256"
        },
        {
          "internalType": "uint256",
          "name": "penaltyAmount",
          "type": "uint256"
        }
      ],
      "name": "payEmi",
      "outputs": [],
      "stateMutability": "payable",
      "type": "function"
    },
    {
      "inputs": [
        {
          "internalType": "uint256",
          "name": "property_id",
          "type": "uint256"
        }
      ],
      "name": "snatchNFT",
      "outputs": [],
      "stateMutability": "payable",
      "type": "function"
    },
    {
      "inputs": [],
      "name": "getContractBalance",
      "outputs": [
        {
          "internalType": "uint256",
          "name": "",
          "type": "uint256"
        }
      ],
      "stateMutability": "view",
      "type": "function"
    },
    {
      "inputs": [
        {
          "internalType": "uint256",
          "name": "property_id",
          "type": "uint256"
        }
      ],
      "name": "getHouseDetails",
      "outputs": [
        {
          "components": [
            {
              "internalType": "uint256",
              "name": "property_id",
              "type": "uint256"
            },
            {
              "internalType": "uint256",
              "name": "price",
              "type": "uint256"
            },
            {
              "internalType": "uint256",
              "name": "status",
              "type": "uint256"
            },
            {
              "internalType": "address",
              "name": "owner",
              "type": "address"
            },
            {
              "internalType": "address",
              "name": "mortgager",
              "type": "address"
            },
            {
              "internalType": "uint256",
              "name": "mortgageamt",
              "type": "uint256"
            },
            {
              "internalType": "uint256",
              "name": "downpayment",
              "type": "uint256"
            },
            {
              "internalType": "uint256",
              "name": "capital_to_be_raised",
              "type": "uint256"
            },
            {
              "internalType": "uint256",
              "name": "emi_to_be_paid",
              "type": "uint256"
            },
            {
              "internalType": "address[]",
              "name": "risk_free_investors",
              "type": "address[]"
            },
            {
              "internalType": "uint256[]",
              "name": "riskFreeInvestorPayment",
              "type": "uint256[]"
            },
            {
              "internalType": "uint256[]",
              "name": "riskFreeInvestorInvestment",
              "type": "uint256[]"
            },
            {
              "internalType": "bool",
              "name": "firstEmiDone",
              "type": "bool"
            },
            {
              "internalType": "uint256",
              "name": "totalInterestMonths",
              "type": "uint256"
            },
            {
              "internalType": "uint256",
              "name": "interestMonthsLeft",
              "type": "uint256"
            },
            {
              "internalType": "uint256",
              "name": "nftTokenId",
              "type": "uint256"
            },
            {
              "internalType": "uint256",
              "name": "lastEMItimestamp",
              "type": "uint256"
            }
          ],
          "internalType": "struct morter.House_property",
          "name": "",
          "type": "tuple"
        }
      ],
      "stateMutability": "view",
      "type": "function"
    },
    {
      "inputs": [
        {
          "internalType": "uint256",
          "name": "property_id",
          "type": "uint256"
        }
      ],
      "name": "getAddresses",
      "outputs": [
        {
          "internalType": "address[]",
          "name": "",
          "type": "address[]"
        }
      ],
      "stateMutability": "view",
      "type": "function"
    },
    {
      "inputs": [
        {
          "internalType": "uint256",
          "name": "property_id",
          "type": "uint256"
        }
      ],
      "name": "getRiskFreeInvestorInvestment",
      "outputs": [
        {
          "internalType": "uint256[]",
          "name": "",
          "type": "uint256[]"
        }
      ],
      "stateMutability": "view",
      "type": "function"
    },
    {
      "inputs": [
        {
          "internalType": "uint256",
          "name": "property_id",
          "type": "uint256"
        }
      ],
      "name": "getRiskFreeInvestorPayment",
      "outputs": [
        {
          "internalType": "uint256[]",
          "name": "",
          "type": "uint256[]"
        }
      ],
      "stateMutability": "view",
      "type": "function"
    },
    {
      "inputs": [],
      "name": "depositEther",
      "outputs": [],
      "stateMutability": "payable",
      "type": "function"
    },
    {
      "inputs": [],
      "name": "withdrawEther",
      "outputs": [],
      "stateMutability": "payable",
      "type": "function"
    }
  ],
  "bytecode": "0x608060405260006002553480156200001657600080fd5b50604051620025a7380380620025a7833981016040819052620000399162000068565b600080546001600160a01b039092166001600160a01b0319928316179055600180549091163317905562000098565b6000602082840312156200007a578081fd5b81516001600160a01b038116811462000091578182fd5b9392505050565b6124ff80620000a86000396000f3fe6080604052600436106100fe5760003560e01c8063b84cb18511610095578063df1dd82611610064578063df1dd82614610246578063e890834614610259578063ec4788cd14610286578063ee9b6a96146102b3578063f6420e15146102c8576100fe565b8063b84cb185146101ed578063bc7939fd14610200578063cbd6d7b114610220578063d540ca1b14610233576100fe565b806370ae0389116100d157806370ae03891461019d5780637362377b146101ca57806386cac374146101d257806398ea5fca146101e5576100fe565b80633c34106c1461010357806344e59d80146101185780634eda529b1461015b5780636f9fb98a1461017b575b600080fd5b61011661011136600461214e565b6102ea565b005b34801561012457600080fd5b506101386101333660046120ea565b6106f4565b6040516101529e9d9c9b9a999897969594939291906123f8565b60405180910390f35b34801561016757600080fd5b50610116610176366004612102565b610774565b34801561018757600080fd5b506101906108f2565b60405161015291906123ef565b3480156101a957600080fd5b506101bd6101b83660046120ea565b6108f6565b6040516101529190612289565b61011661095b565b6101166101e0366004612102565b6109ae565b610116610bbe565b6101166101fb366004612102565b610bd7565b34801561020c57600080fd5b506101bd61021b3660046120ea565b6110bc565b61011661022e3660046120ea565b61111f565b610116610241366004612123565b611457565b6101166102543660046120ea565b61187b565b34801561026557600080fd5b506102796102743660046120ea565b611c73565b60405161015291906122c8565b34801561029257600080fd5b506102a66102a13660046120ea565b611e43565b604051610152919061223c565b3480156102bf57600080fd5b50610190611eb1565b3480156102d457600080fd5b506102dd611eb7565b6040516101529190612204565b60008481526003602052604090206002015460641461030857600080fd5b60008481526003602052604090206001015461032357600080fd5b600084815260036020526040902060010154831061034057600080fd5b6000848152600360205260409020600401546001600160a01b03161561036557600080fd5b600084815260036020526040902060010154610382908490612481565b34146103a95760405162461bcd60e51b81526004016103a0906122a3565b60405180910390fd5b600084815260036020818152604080842081516102208101835281548152600182015481850152600282015481840152938101546001600160a01b0390811660608601526004820154166080850152600581015460a0850152600681015460c0850152600781015460e085015260088101546101008501526009810180548351818602810186019094528084529193610120860193929083018282801561047957602002820191906000526020600020905b81546001600160a01b0316815260019091019060200180831161045b575b50505050508152602001600a82018054806020026020016040519081016040528092919081815260200182805480156104d157602002820191906000526020600020905b8154815260200190600101908083116104bd575b50505050508152602001600b820180548060200260200160405190810160405280929190818152602001828054801561052957602002820191906000526020600020905b815481526020019060010190808311610515575b5050509183525050600c82015460ff161515602080830191909152600d830154604080840191909152600e8401546060840152600f84015460808085019190915260109094015460a09384015233938501939093529083018790526000888152600390915220600101549091506105a1908590612481565b60c0820190815260c8604080840191825260a08401805160e0860190815261010086018881526101c087018890526101a0870188905260008b815260036020818152959091208851815585890151600182015595516002870155606088015190860180546001600160a01b039283166001600160a01b0319918216179091556080890151600488018054919093169116179055915160058501559351600684015592516007830155915160088201556101208301518051849361066b926009850192910190611f43565b50610140820151805161068891600a840191602090910190611fa8565b5061016082015180516106a591600b840191602090910190611fa8565b50610180820151600c8201805460ff19169115159190911790556101a0820151600d8201556101c0820151600e8201556101e0820151600f820155610200909101516010909101555050505050565b60036020819052600091825260409091208054600182015460028301549383015460048401546005850154600686015460078701546008880154600c890154600d8a0154600e8b0154600f8c01546010909c01549a9c999b999a6001600160a01b03998a169a9990981698969795969495939460ff90931693919290918e565b61077c611fe3565b818152602080820184815260646040808501918252336060860190815260006080870181815260a0880182815260e089018381526101e08a018b90526101808a018490528a84526003808a5295909320895181559651600188015594516002870155915192850180546001600160a01b03199081166001600160a01b0395861617909155915160048601805490931693169290921790559051600583015560c08401516006830155516007820155610100830151600882015561012083015180518493610850926009850192910190611f43565b50610140820151805161086d91600a840191602090910190611fa8565b50610160820151805161088a91600b840191602090910190611fa8565b50610180820151600c8201805460ff19169115159190911790556101a0820151600d8201556101c0820151600e8201556101e0820151600f8201556102009091015160109091015560028054600191906000906108e8908490612469565b9091555050505050565b4790565b600081815260036020908152604091829020600b0180548351818402810184019094528084526060939283018282801561094f57602002820191906000526020600020905b81548152602001906001019080831161093b575b50505050509050919050565b6001546001600160a01b0316331461097257600080fd5b6001546040516001600160a01b03909116904780156108fc02916000818181858888f193505050501580156109ab573d6000803e3d6000fd5b50565b806109b857600080fd5b60008281526003602052604090206002015460c8146109d657600080fd5b6000828152600360205260409020600701548111156109f457600080fd5b803414610a0057600080fd5b60008281526003602052604090206007810154610a1e908390612481565b60078201819055610a325761012c60028201555b600981018054600181810183556000838152602080822090930180546001600160a01b03191633179055600b850180549283018155815291822001849055610a7b600285611ec6565b90506000610a8b826103e8611f0f565b600a8501805460018082018355600092835260208084209092018490558983526003918290526040909220875481558288015492810192909255600280880154908301558087015490820180546001600160a01b039283166001600160a01b031991821617909155600480890154908401805491909316911617905560058087015490820155600680870154908201556007808701549082015560088087015490820155600980870180549394508793610b48928401919061207b565b50600a8281018054610b5d928401919061207b565b50600b8281018054610b72928401919061207b565b50600c82810154908201805460ff191660ff9092161515919091179055600d8083015490820155600e8083015490820155600f8083015490820155601091820154910155505050505050565b6001546001600160a01b03163314610bd557600080fd5b565b6000828152600360205260409020600281015461019014610bf757600080fd5b600081600e015411610c0857600080fd5b60048101546001600160a01b03163314610c2157600080fd5b81610c3b5780600801543414610c3657600080fd5b610c47565b813414610c4757600080fd5b600c81015460ff16610c6357600c8101805460ff191660011790555b6009810180546000805b82811015610d5a57838181548110610c9557634e487b7160e01b600052603260045260246000fd5b600091825260209091200154600a860180546001600160a01b03909216916108fc919084908110610cd657634e487b7160e01b600052603260045260246000fd5b90600052602060002001549081150290604051600060405180830381858888f19350505050158015610d0c573d6000803e3d6000fd5b5084600a018181548110610d3057634e487b7160e01b600052603260045260246000fd5b906000526020600020015482610d469190612469565b915080610d5281612498565b915050610c6d565b50600085610d8f57818560080154610d729190612481565b9050600185600e0154610d859190612481565b600e860155610db2565b610d998287612481565b9050600285600e0154610dac9190612481565b600e8601555b6001546040516001600160a01b039091169082156108fc029083906000818181858888f19350505050158015610dec573d6000803e3d6000fd5b50426010860155600e850154610fa457600054600154600480880154600f89015460405163251e2e5f60e01b81526001600160a01b039586169563251e2e5f95610e3f9590821694909116929101612218565b600060405180830381600087803b158015610e5957600080fd5b505af1158015610e6d573d6000803e3d6000fd5b5050505060098501805460005b81811015610f2c57828181548110610ea257634e487b7160e01b600052603260045260246000fd5b600091825260209091200154600b890180546001600160a01b03909216916108fc919084908110610ee357634e487b7160e01b600052603260045260246000fd5b90600052602060002001549081150290604051600060405180830381858888f19350505050158015610f19573d6000803e3d6000fd5b5080610f2481612498565b915050610e7a565b50600060018801819055600288018190556004880180546001600160a01b0319169055600588018190556006880181905560078801819055610f729060098901906120bb565b610f80600a880160006120bb565b610f8e600b880160006120bb565b5050600c8501805460ff19169055600060108601555b60008781526003602081905260409091208654815560018088015490820155600280880154908201558682015491810180546001600160a01b039384166001600160a01b0319918216179091556004808901549083018054919094169116179091556005808701549082015560068087015490820155600780870154908201556008808701549082015560098087018054889392611045929084019161207b565b50600a828101805461105a928401919061207b565b50600b828101805461106f928401919061207b565b50600c82810154908201805460ff191660ff9092161515919091179055600d8083015490820155600e8083015490820155600f808301549082015560109182015491015550505050505050565b600081815260036020908152604091829020600a0180548351818402810184019094528084526060939283018282801561094f576020028201919060005260206000209081548152602001906001019080831161093b5750505050509050919050565b60008181526003602052604090206001546001600160a01b0316331461114457600080fd5b8060010154341461115457600080fd5b600081600e015482600d015461116a9190612481565b9050600061117c828460080154611ec6565b9050600061119284600d01548560080154611ec6565b905060006111a08383612481565b905060008186600101546111b49190612481565b60048701546040519192506001600160a01b03169082156108fc029083906000818181858888f193505050501580156111f1573d6000803e3d6000fd5b5060098601805460005b818110156112ad5782818154811061122357634e487b7160e01b600052603260045260246000fd5b600091825260209091200154600b8a0180546001600160a01b03909216916108fc91908490811061126457634e487b7160e01b600052603260045260246000fd5b90600052602060002001549081150290604051600060405180830381858888f1935050505015801561129a573d6000803e3d6000fd5b50806112a581612498565b9150506111fb565b506000600189810182905560028a018290555460038a0180546001600160a01b039092166001600160a01b031992831617905560048a018054909116905560058901819055600689018190556007890181905561130e9060098a01906120bb565b61131c600a890160006120bb565b61132a600b890160006120bb565b600c8801805460ff19169055600060108901819055898152600360208190526040909120895481556001808b0154908201556002808b015490820155818a015491810180546001600160a01b039384166001600160a01b0319918216179091556004808c01549083018054919094169116179091556005808a0154908201556006808a0154908201556007808a0154908201556008808a0154908201556009808a0180548b93926113de929084019161207b565b50600a82810180546113f3928401919061207b565b50600b8281018054611408928401919061207b565b50600c82810154908201805460ff191660ff9092161515919091179055600d8083015490820155600e8083015490820155600f8083015490820155601091820154910155505050505050505050565b60008381526003602052604090206002015460641461147557600080fd5b60008381526003602052604090206001015461149057600080fd5b600083815260036020818152604080842081516102208101835281548152600182015481850152600282015481840152938101546001600160a01b0390811660608601526004820154166080850152600581015460a0850152600681015460c0850152600781015460e085015260088101546101008501526009810180548351818602810186019094528084529193610120860193929083018282801561156057602002820191906000526020600020905b81546001600160a01b03168152600190910190602001808311611542575b50505050508152602001600a82018054806020026020016040519081016040528092919081815260200182805480156115b857602002820191906000526020600020905b8154815260200190600101908083116115a4575b50505050508152602001600b820180548060200260200160405190810160405280929190818152602001828054801561161057602002820191906000526020600020905b8154815260200190600101908083116115fc575b50505050508152602001600c820160009054906101000a900460ff16151515158152602001600d8201548152602001600e8201548152602001600f8201548152602001601082015481525050905080606001516001600160a01b03166108fc849081150290604051600060405180830381858888f1935050505015801561169b573d6000803e3d6000fd5b506001546040516001600160a01b039091169083156108fc029084906000818181858888f193505050501580156116d6573d6000803e3d6000fd5b5060005460608201516101e08301516040516341172efd60e01b81526001600160a01b03909316926341172efd92611715929091339190600401612218565b600060405180830381600087803b15801561172f57600080fd5b505af1158015611743573d6000803e3d6000fd5b5050336060840190815260008781526003602081815260409283902087518155818801516001820155928701516002840155925190820180546001600160a01b039283166001600160a01b031991821617909155608087015160048401805491909316911617905560a0850151600582015560c0850151600682015560e08501516007820155610100850151600882015561012085015180518695509193506117f3926009850192910190611f43565b50610140820151805161181091600a840191602090910190611fa8565b50610160820151805161182d91600b840191602090910190611fa8565b50610180820151600c8201805460ff19169115159190911790556101a0820151600d8201556101c0820151600e8201556101e0820151600f8201556102009091015160109091015550505050565b60008181526003602052604090206002015461012c1461189a57600080fd5b600081815260036020818152604080842081516102208101835281548152600182015481850152600282015481840152938101546001600160a01b0390811660608601526004820154166080850152600581015460a0850152600681015460c0850152600781015460e085015260088101546101008501526009810180548351818602810186019094528084529193610120860193929083018282801561196a57602002820191906000526020600020905b81546001600160a01b0316815260019091019060200180831161194c575b50505050508152602001600a82018054806020026020016040519081016040528092919081815260200182805480156119c257602002820191906000526020600020905b8154815260200190600101908083116119ae575b50505050508152602001600b8201805480602002602001604051908101604052809291908181526020018280548015611a1a57602002820191906000526020600020905b815481526020019060010190808311611a06575b5050509183525050600c82015460ff161515602080830191909152600d8301546040830152600e8301546060830152600f830154608083015260109092015460a09091015260c082015190820151919250611a7491612481565b3414611a7f57600080fd5b80606001516001600160a01b03166108fc82602001519081150290604051600060405180830381858888f19350505050158015611ac0573d6000803e3d6000fd5b5060005460608201516001546101e0840151604051630a233ae560e31b81526001600160a01b0394851694635119d72894611b02949093911691600401612218565b600060405180830381600087803b158015611b1c57600080fd5b505af1158015611b30573d6000803e3d6000fd5b505050506080810180516001600160a01b03908116606084019081526101906040808601918252600087815260036020818152929091208751815582880151600182015592516002840155925192820180549385166001600160a01b031994851617905593516004820180549190941692169190911790915560a0830151600582015560c0830151600682015560e08301516007820155610100830151600882015561012083015180518493611bed926009850192910190611f43565b506101408201518051611c0a91600a840191602090910190611fa8565b506101608201518051611c2791600b840191602090910190611fa8565b50610180820151600c8201805460ff19169115159190911790556101a0820151600d8201556101c0820151600e8201556101e0820151600f820155610200909101516010909101555050565b611c7b611fe3565b60008281526003602081815260409283902083516102208101855281548152600182015481840152600282015481860152928101546001600160a01b0390811660608501526004820154166080840152600581015460a0840152600681015460c0840152600781015460e0840152600881015461010084015260098101805485518185028101850190965280865293949193610120860193830182828015611d4c57602002820191906000526020600020905b81546001600160a01b03168152600190910190602001808311611d2e575b50505050508152602001600a8201805480602002602001604051908101604052809291908181526020018280548015611da457602002820191906000526020600020905b815481526020019060010190808311611d90575b50505050508152602001600b8201805480602002602001604051908101604052809291908181526020018280548015611dfc57602002820191906000526020600020905b815481526020019060010190808311611de8575b5050509183525050600c82015460ff1615156020820152600d8201546040820152600e8201546060820152600f820154608082015260109091015460a09091015292915050565b60008181526003602090815260409182902060090180548351818402810184019094528084526060939283018282801561094f57602002820191906000526020600020905b81546001600160a01b03168152600190910190602001808311611e885750505050509050919050565b60025481565b6001546001600160a01b031681565b600082611ed557506000611f09565b82820282848281611ef657634e487b7160e01b600052601260045260246000fd5b0414611f06576000915050611f09565b90505b92915050565b600081611f1e57506000611f09565b818381611f3b57634e487b7160e01b600052601260045260246000fd5b049392505050565b828054828255906000526020600020908101928215611f98579160200282015b82811115611f9857825182546001600160a01b0319166001600160a01b03909116178255602090920191600190910190611f63565b50611fa49291506120d5565b5090565b828054828255906000526020600020908101928215611f98579160200282015b82811115611f98578251825591602001919060010190611fc8565b60405180610220016040528060008152602001600081526020016000815260200160006001600160a01b0316815260200160006001600160a01b0316815260200160008152602001600081526020016000815260200160008152602001606081526020016060815260200160608152602001600015158152602001600081526020016000815260200160008152602001600081525090565b828054828255906000526020600020908101928215611f985760005260206000209182015b82811115611f985782548255916001019190600101906120a0565b50805460008255906000526020600020908101906109ab91905b5b80821115611fa457600081556001016120d6565b6000602082840312156120fb578081fd5b5035919050565b60008060408385031215612114578081fd5b50508035926020909101359150565b600080600060608486031215612137578081fd5b505081359360208301359350604090920135919050565b60008060008060808587031215612163578081fd5b5050823594602084013594506040840135936060013592509050565b6001600160a01b03169052565b6000815180845260208085019450808401835b838110156121c45781516001600160a01b03168752958201959082019060010161219f565b509495945050505050565b6000815180845260208085019450808401835b838110156121c4578151875295820195908201906001016121e2565b15159052565b6001600160a01b0391909116815260200190565b6001600160a01b039384168152919092166020820152604081019190915260600190565b6020808252825182820181905260009190848201906040850190845b8181101561227d5783516001600160a01b031683529284019291840191600101612258565b50909695505050505050565b60006020825261229c60208301846121cf565b9392505050565b6020808252600b908201526a191bdddb9c185e5b595b9d60aa1b604082015260600190565b60006020825282516020830152602083015160408301526040830151606083015260608301516122fb608084018261217f565b50608083015161230e60a084018261217f565b5060a083015160c083015260c083015160e083015260e0830151610100818185015280850151915050610120818185015280850151915050610220610140818186015261235f61024086018461218c565b9250808601519050601f1961016081878603018188015261238085846121cf565b94508088015192505061018081878603018188015261239f85846121cf565b945080880151925050506101a06123b8818701836121fe565b8601516101c0868101919091528601516101e080870191909152860151610200808701919091529095015193019290925250919050565b90815260200190565b9d8e5260208e019c909c5260408d019a909a526001600160a01b0398891660608d01529690971660808b015260a08a019490945260c089019290925260e088015261010087015215156101208601526101408501919091526101608401526101808301526101a08201526101c00190565b6000821982111561247c5761247c6124b3565b500190565b600082821015612493576124936124b3565b500390565b60006000198214156124ac576124ac6124b3565b5060010190565b634e487b7160e01b600052601160045260246000fdfea2646970667358221220d0bdfdce16e31fc4965061aa4be563de416d42f32337a465144014642bdb930f64736f6c63430008010033",
  "immutableReferences": {},
  "source": "// SPDX-License-Identifier: MIT\npragma solidity ^0.8.1;\npragma experimental ABIEncoderV2;\n\nimport \"./propNFT.sol\";\n\ncontract morter\n{\n    propNFT nftContract;\n    address public tc;\n    constructor(propNFT _nftcontract)\n    {\n       nftContract=_nftcontract;\n       tc=msg.sender;\n    }\n    struct House_property \n    {\n        uint property_id;\n        uint price;\n        uint status;\n        address owner;\n        address mortgager;\n        uint mortgageamt;\n        uint downpayment;\n        uint capital_to_be_raised;\n        uint emi_to_be_paid;\n        address[] risk_free_investors;\n        uint[] riskFreeInvestorPayment;\n        uint[] riskFreeInvestorInvestment;\n        bool firstEmiDone;\n        uint totalInterestMonths;\n        uint interestMonthsLeft;\n        uint nftTokenId;\n        uint lastEMItimestamp;\n    }\n\n    uint public propertycounter=0;\n\n    mapping(uint=>House_property) public allproperties;\n\n    function listProperty(uint _price,uint tokenId) public\n    {// will be called by property lister\n        House_property memory prop; \n        prop.property_id=tokenId;\n        prop.price=_price;\n        prop.status=100;\n        prop.owner=msg.sender;\n        prop.mortgager=address(0);\n        prop.mortgageamt=0;\n        prop.capital_to_be_raised=0;\n        prop.nftTokenId=tokenId;\n        prop.firstEmiDone=false;\n        allproperties[prop.property_id]=prop;\n        propertycounter+=1;\n        //nftContract.approveContract(address(this),tokenId);\n    }\n    //status\n    //100) newly listed\n    //200) mortgage initiated\n    //300) risk free investors invested\n    //400) final trade done\n\n    function direct_buy_property(uint property_id,uint payToSeller,uint payToTC)public payable\n    {\n        //5% commission to TC for direct buying\n        //will be called by buyer\n        require(allproperties[property_id].status==100);\n        require(allproperties[property_id].price!=0);\n        House_property memory prop = allproperties[property_id];\n        payable(prop.owner).transfer(payToSeller);\n        payable(tc).transfer(payToTC);\n        nftContract.transferFromOwnerToMortgager(prop.owner,msg.sender,prop.nftTokenId);\n        prop.owner=msg.sender;\n        allproperties[property_id]=prop;\n    }\n\n    \n    function initiate_mortgage(uint property_id, uint mortgage_amt,uint _emi,uint interestMonths)public payable\n    {\n        //will be called by person who needs house on loan\n        require(allproperties[property_id].status==100);\n        require(allproperties[property_id].price!=0);\n        require(allproperties[property_id].price>mortgage_amt);\n        require(allproperties[property_id].mortgager==address(0));\n        require(msg.value==allproperties[property_id].price-mortgage_amt,\"downpayment\");\n        House_property memory prop = allproperties[property_id];\n        prop.mortgager=msg.sender;\n        prop.mortgageamt=mortgage_amt;\n        prop.downpayment = allproperties[property_id].price-mortgage_amt;\n        prop.status=200;\n        prop.capital_to_be_raised=prop.mortgageamt;\n        prop.emi_to_be_paid=_emi;\n        prop.interestMonthsLeft=interestMonths;\n        prop.totalInterestMonths = interestMonths;\n        allproperties[property_id]=prop;\n    }\n\n    function riskfreeinvest(uint property_id, uint rf_amount) public payable\n    {\n        //will be called by risk free investors everytime they want to invest\n        require(rf_amount!=0);\n        require(allproperties[property_id].status==200);\n        require(allproperties[property_id].capital_to_be_raised>=rf_amount);\n        require(msg.value==rf_amount);\n        House_property storage prop = allproperties[property_id];\n        prop.capital_to_be_raised = prop.capital_to_be_raised - rf_amount;\n        if(prop.capital_to_be_raised==0)\n        {\n            prop.status=300;\n        }\n        address[] storage allriskfreeinvestors = prop.risk_free_investors;\n        allriskfreeinvestors.push(msg.sender);\n        prop.riskFreeInvestorInvestment.push(rf_amount);\n        uint returnForRFI = tryMul(2,rf_amount);//0.2% fixed returns\n        uint payToRiskFreeInvestor = tryDiv(returnForRFI,1000);\n        prop.riskFreeInvestorPayment.push(payToRiskFreeInvestor);\n        allproperties[property_id]=prop;\n    }\n\n    function trade(uint property_id) public payable\n    {\n        //will be called by trading company to finalise trade\n        require(allproperties[property_id].status==300);\n        House_property memory prop = allproperties[property_id];\n        require(msg.value==prop.price-prop.downpayment);\n        //prop owner gets his/her price and exits\n        payable(prop.owner).transfer(prop.price);\n        //here prop.owner is original seller and contract has approval for transfer\n        nftContract.transferFromMortgagerToTC(prop.owner,tc,prop.nftTokenId);\n        prop.owner=prop.mortgager;\n        prop.status=400;\n        allproperties[property_id]=prop;   \n    }\n\n    function payEmi(uint property_id, uint penaltyAmount)public payable\n    {\n        \n        //will be called by mortgager to pay EMI \n        House_property storage prop = allproperties[property_id];\n        require(prop.status==400);\n        require(prop.interestMonthsLeft>0);\n        require(msg.sender==prop.mortgager);\n        // here penaltyAmount is the total amount after adding 2 emis and penalty\n        if(penaltyAmount==0)\n        require(msg.value==prop.emi_to_be_paid);\n        else\n        require(msg.value==penaltyAmount);\n\n        //first emi flag\n        if(prop.firstEmiDone==false)\n        {\n            prop.firstEmiDone=true;\n        }\n\n        // transfer returns to risk free investors\n        address[] storage allriskfreeinvestors = prop.risk_free_investors;\n        uint count_of_rf_investors = allriskfreeinvestors.length;\n        uint totalRiskFreePayment=0;\n        for(uint i=0;i<count_of_rf_investors;i++)\n        {\n            payable(allriskfreeinvestors[i]).transfer(prop.riskFreeInvestorPayment[i]);\n            totalRiskFreePayment+=prop.riskFreeInvestorPayment[i];\n        }\n\n\n        //pay rest of amount to trading company\n        uint payToTC=0;\n        if(penaltyAmount==0)\n        {payToTC = prop.emi_to_be_paid - totalRiskFreePayment;\n        prop.interestMonthsLeft = prop.interestMonthsLeft - 1;}\n        else\n        {payToTC = penaltyAmount - totalRiskFreePayment;\n        prop.interestMonthsLeft = prop.interestMonthsLeft - 2;}\n\n        payable(tc).transfer(payToTC);\n\n        //store last emi timestamp\n        prop.lastEMItimestamp=block.timestamp;\n\n        // If last emi successfully paid then,\n        if(prop.interestMonthsLeft==0)\n        {\n        //nft transferred to mortgager\n        nftContract.transferFromTCToMortgager(tc,prop.mortgager,prop.nftTokenId);\n         \n         // transfer investment to risk free investors\n        address[] storage allriskfreeinvestors1 = prop.risk_free_investors;\n        uint count_of_rf_investors1 = allriskfreeinvestors1.length;\n        for(uint i=0;i<count_of_rf_investors1;i++)\n        {\n            payable(allriskfreeinvestors1[i]).transfer(prop.riskFreeInvestorInvestment[i]);\n        }\n\n        // reset attributes of property so that it can be sold again\n            prop.price=0;\n            prop.status=0;\n            prop.mortgager=address(0);\n            prop.mortgageamt=0;\n            prop.downpayment=0;\n            prop.capital_to_be_raised=0;\n            delete prop.risk_free_investors;\n            delete prop.riskFreeInvestorPayment;\n            delete prop.riskFreeInvestorInvestment;\n            prop.firstEmiDone=false;\n            prop.lastEMItimestamp=0;\n        }\n\n        allproperties[property_id]=prop;\n    }\n\n\n    function snatchNFT(uint property_id)public payable\n    { \n        House_property storage prop = allproperties[property_id];\n        require(msg.sender==tc);\n        require(msg.value==prop.price);\n        uint no_of_months_emi_paid = prop.totalInterestMonths - prop.interestMonthsLeft;\n        uint totalEMIPaid = tryMul(no_of_months_emi_paid,prop.emi_to_be_paid);\n        uint totalEMItoBePaid = tryMul(prop.totalInterestMonths,prop.emi_to_be_paid);\n        // If mortgager defaults then, calculate his liabilities\n        uint actualLiability = totalEMItoBePaid - totalEMIPaid;\n        uint buyerExitAmount = prop.price - actualLiability;\n\n        // trading company snatches the property and sends remaining amount to mortgager and mortgager exits\n        payable(prop.mortgager).transfer(buyerExitAmount);\n\n        // transfer investment to risk free investors\n        address[] storage allriskfreeinvestors = prop.risk_free_investors;\n        uint count_of_rf_investors = allriskfreeinvestors.length;\n        for(uint i=0;i<count_of_rf_investors;i++)\n        {\n            payable(allriskfreeinvestors[i]).transfer(prop.riskFreeInvestorInvestment[i]);\n        }\n\n         // reset attributes of property so that it can be sold again\n        prop.price=0;\n        prop.status=0;\n        prop.owner=tc;\n        prop.mortgager=address(0);\n        prop.mortgageamt=0;\n        prop.downpayment=0;\n        prop.capital_to_be_raised=0;\n        delete prop.risk_free_investors;\n        delete prop.riskFreeInvestorPayment;\n        delete prop.riskFreeInvestorInvestment;\n        prop.firstEmiDone=false;\n        prop.lastEMItimestamp=0;\n\n        allproperties[property_id]=prop;\n    }\n    \n    function getContractBalance() public view returns (uint) {\n        return address(this).balance;\n    }\n\n    function getHouseDetails(uint property_id) public view returns(House_property memory)\n    {\n        return allproperties[property_id];\n    }\n\n    function getAddresses(uint property_id) public view returns(address[] memory)\n    {\n        return allproperties[property_id].risk_free_investors;\n    }\n\n    function getRiskFreeInvestorInvestment(uint property_id) public view returns(uint[] memory)\n    {\n        return allproperties[property_id].riskFreeInvestorInvestment;\n    }\n\n    function getRiskFreeInvestorPayment(uint property_id) public view returns(uint[] memory)\n    {\n        return allproperties[property_id].riskFreeInvestorPayment;\n    }\n\n    function tryMul(uint256 a, uint256 b) internal pure returns (uint256) {\n        unchecked {\n            if (a == 0) return ( 0);\n            uint256 c = a * b;\n            if (c / a != b) return ( 0);\n            return ( c);\n        }\n    }\n    function tryDiv(uint256 a, uint256 b) internal pure returns (uint256) {\n        unchecked {\n            if (b == 0) return ( 0);\n            return ( a / b);\n        }\n    }\n\n    function depositEther() public payable\n    {\n        require(msg.sender==tc);\n    }\n\n    function withdrawEther() public payable\n    {\n        require(msg.sender==tc);\n        payable(tc).transfer(address(this).balance);\n    }\n\n}",
  "sourcePath": "D:\\hackerearth\\HackerEarth_Proj22\\client\\contracts\\morter.sol",
  "compiler": {
    "name": "solc",
    "version": "0.8.1+commit.df193b15.Emscripten.clang"
  },
  "schemaVersion": "3.4.11",
  "updatedAt": "2022-12-24T10:04:29.824Z",
  "devdoc": {
    "kind": "dev",
    "methods": {},
    "version": 1
  },
  "userdoc": {
    "kind": "user",
    "methods": {},
    "version": 1
  }
}